{
  "_format": "hh-sol-artifact-1",
  "contractName": "PuzzlesContract",
  "sourceName": "contracts/PuzzlesContract.sol",
  "abi": [
    {
      "inputs": [],
      "stateMutability": "nonpayable",
      "type": "constructor"
    },
    {
      "anonymous": false,
      "inputs": [
        {
          "indexed": true,
          "internalType": "address",
          "name": "owner",
          "type": "address"
        },
        {
          "indexed": true,
          "internalType": "address",
          "name": "approved",
          "type": "address"
        },
        {
          "indexed": true,
          "internalType": "uint256",
          "name": "tokenId",
          "type": "uint256"
        }
      ],
      "name": "Approval",
      "type": "event"
    },
    {
      "anonymous": false,
      "inputs": [
        {
          "indexed": true,
          "internalType": "address",
          "name": "owner",
          "type": "address"
        },
        {
          "indexed": true,
          "internalType": "address",
          "name": "operator",
          "type": "address"
        },
        {
          "indexed": false,
          "internalType": "bool",
          "name": "approved",
          "type": "bool"
        }
      ],
      "name": "ApprovalForAll",
      "type": "event"
    },
    {
      "anonymous": false,
      "inputs": [
        {
          "indexed": true,
          "internalType": "address",
          "name": "previousOwner",
          "type": "address"
        },
        {
          "indexed": true,
          "internalType": "address",
          "name": "newOwner",
          "type": "address"
        }
      ],
      "name": "OwnershipTransferred",
      "type": "event"
    },
    {
      "anonymous": false,
      "inputs": [
        {
          "indexed": true,
          "internalType": "address",
          "name": "from",
          "type": "address"
        },
        {
          "indexed": true,
          "internalType": "address",
          "name": "to",
          "type": "address"
        },
        {
          "indexed": true,
          "internalType": "uint256",
          "name": "tokenId",
          "type": "uint256"
        }
      ],
      "name": "Transfer",
      "type": "event"
    },
    {
      "inputs": [],
      "name": "MAX_SUPPLY",
      "outputs": [
        {
          "internalType": "uint256",
          "name": "",
          "type": "uint256"
        }
      ],
      "stateMutability": "view",
      "type": "function"
    },
    {
      "inputs": [],
      "name": "PRICE_PER_TOKEN",
      "outputs": [
        {
          "internalType": "uint256",
          "name": "",
          "type": "uint256"
        }
      ],
      "stateMutability": "view",
      "type": "function"
    },
    {
      "inputs": [
        {
          "internalType": "uint256",
          "name": "",
          "type": "uint256"
        }
      ],
      "name": "_tokensMinted",
      "outputs": [
        {
          "internalType": "uint256",
          "name": "",
          "type": "uint256"
        }
      ],
      "stateMutability": "view",
      "type": "function"
    },
    {
      "inputs": [
        {
          "internalType": "address",
          "name": "",
          "type": "address"
        }
      ],
      "name": "_whiteList",
      "outputs": [
        {
          "internalType": "uint8",
          "name": "",
          "type": "uint8"
        }
      ],
      "stateMutability": "view",
      "type": "function"
    },
    {
      "inputs": [
        {
          "internalType": "address",
          "name": "to",
          "type": "address"
        },
        {
          "internalType": "uint256",
          "name": "tokenId",
          "type": "uint256"
        }
      ],
      "name": "approve",
      "outputs": [],
      "stateMutability": "nonpayable",
      "type": "function"
    },
    {
      "inputs": [
        {
          "internalType": "address",
          "name": "owner",
          "type": "address"
        }
      ],
      "name": "balanceOf",
      "outputs": [
        {
          "internalType": "uint256",
          "name": "",
          "type": "uint256"
        }
      ],
      "stateMutability": "view",
      "type": "function"
    },
    {
      "inputs": [
        {
          "internalType": "uint256",
          "name": "tokenId",
          "type": "uint256"
        }
      ],
      "name": "getApproved",
      "outputs": [
        {
          "internalType": "address",
          "name": "",
          "type": "address"
        }
      ],
      "stateMutability": "view",
      "type": "function"
    },
    {
      "inputs": [],
      "name": "getScoreWallets",
      "outputs": [
        {
          "internalType": "address[]",
          "name": "",
          "type": "address[]"
        }
      ],
      "stateMutability": "view",
      "type": "function"
    },
    {
      "inputs": [
        {
          "internalType": "address",
          "name": "owner",
          "type": "address"
        },
        {
          "internalType": "address",
          "name": "operator",
          "type": "address"
        }
      ],
      "name": "isApprovedForAll",
      "outputs": [
        {
          "internalType": "bool",
          "name": "",
          "type": "bool"
        }
      ],
      "stateMutability": "view",
      "type": "function"
    },
    {
      "inputs": [
        {
          "internalType": "uint256",
          "name": "_tokenId",
          "type": "uint256"
        }
      ],
      "name": "mint",
      "outputs": [],
      "stateMutability": "payable",
      "type": "function"
    },
    {
      "inputs": [
        {
          "internalType": "uint8",
          "name": "numberOfTokens",
          "type": "uint8"
        }
      ],
      "name": "mintWhitelist",
      "outputs": [],
      "stateMutability": "payable",
      "type": "function"
    },
    {
      "inputs": [],
      "name": "name",
      "outputs": [
        {
          "internalType": "string",
          "name": "",
          "type": "string"
        }
      ],
      "stateMutability": "view",
      "type": "function"
    },
    {
      "inputs": [],
      "name": "owner",
      "outputs": [
        {
          "internalType": "address",
          "name": "",
          "type": "address"
        }
      ],
      "stateMutability": "view",
      "type": "function"
    },
    {
      "inputs": [
        {
          "internalType": "uint256",
          "name": "tokenId",
          "type": "uint256"
        }
      ],
      "name": "ownerOf",
      "outputs": [
        {
          "internalType": "address",
          "name": "",
          "type": "address"
        }
      ],
      "stateMutability": "view",
      "type": "function"
    },
    {
      "inputs": [],
      "name": "renounceOwnership",
      "outputs": [],
      "stateMutability": "nonpayable",
      "type": "function"
    },
    {
      "inputs": [],
      "name": "revealCollection",
      "outputs": [],
      "stateMutability": "nonpayable",
      "type": "function"
    },
    {
      "inputs": [
        {
          "internalType": "address",
          "name": "from",
          "type": "address"
        },
        {
          "internalType": "address",
          "name": "to",
          "type": "address"
        },
        {
          "internalType": "uint256",
          "name": "tokenId",
          "type": "uint256"
        }
      ],
      "name": "safeTransferFrom",
      "outputs": [],
      "stateMutability": "nonpayable",
      "type": "function"
    },
    {
      "inputs": [
        {
          "internalType": "address",
          "name": "from",
          "type": "address"
        },
        {
          "internalType": "address",
          "name": "to",
          "type": "address"
        },
        {
          "internalType": "uint256",
          "name": "tokenId",
          "type": "uint256"
        },
        {
          "internalType": "bytes",
          "name": "_data",
          "type": "bytes"
        }
      ],
      "name": "safeTransferFrom",
      "outputs": [],
      "stateMutability": "nonpayable",
      "type": "function"
    },
    {
      "inputs": [
        {
          "internalType": "uint256",
          "name": "",
          "type": "uint256"
        }
      ],
      "name": "scoreWallets",
      "outputs": [
        {
          "internalType": "address",
          "name": "",
          "type": "address"
        }
      ],
      "stateMutability": "view",
      "type": "function"
    },
    {
      "inputs": [
        {
          "internalType": "address",
          "name": "",
          "type": "address"
        }
      ],
      "name": "scores",
      "outputs": [
        {
          "internalType": "uint256",
          "name": "",
          "type": "uint256"
        }
      ],
      "stateMutability": "view",
      "type": "function"
    },
    {
      "inputs": [
        {
          "internalType": "address",
          "name": "",
          "type": "address"
        },
        {
          "internalType": "string",
          "name": "",
          "type": "string"
        }
      ],
      "name": "scoresRequire",
      "outputs": [
        {
          "internalType": "uint256",
          "name": "",
          "type": "uint256"
        }
      ],
      "stateMutability": "view",
      "type": "function"
    },
    {
      "inputs": [
        {
          "internalType": "address",
          "name": "operator",
          "type": "address"
        },
        {
          "internalType": "bool",
          "name": "approved",
          "type": "bool"
        }
      ],
      "name": "setApprovalForAll",
      "outputs": [],
      "stateMutability": "nonpayable",
      "type": "function"
    },
    {
      "inputs": [
        {
          "internalType": "string",
          "name": "baseURI_",
          "type": "string"
        }
      ],
      "name": "setBaseUriExtended",
      "outputs": [],
      "stateMutability": "nonpayable",
      "type": "function"
    },
    {
      "inputs": [
        {
          "internalType": "string",
          "name": "baseURInotRevealed_",
          "type": "string"
        }
      ],
      "name": "setBaseUriNotRevealed",
      "outputs": [],
      "stateMutability": "nonpayable",
      "type": "function"
    },
    {
      "inputs": [],
      "name": "setSaleIsActive",
      "outputs": [],
      "stateMutability": "nonpayable",
      "type": "function"
    },
    {
      "inputs": [
        {
          "internalType": "address",
          "name": "_user",
          "type": "address"
        },
        {
          "internalType": "string",
          "name": "_puzzleIdSize",
          "type": "string"
        },
        {
          "internalType": "uint256",
          "name": "_score",
          "type": "uint256"
        }
      ],
      "name": "setScore",
      "outputs": [],
      "stateMutability": "nonpayable",
      "type": "function"
    },
    {
      "inputs": [
        {
          "internalType": "address[]",
          "name": "addresses",
          "type": "address[]"
        },
        {
          "internalType": "uint8",
          "name": "numAllowedMint",
          "type": "uint8"
        }
      ],
      "name": "setWhitelist",
      "outputs": [],
      "stateMutability": "nonpayable",
      "type": "function"
    },
    {
      "inputs": [],
      "name": "setWhitelistActive",
      "outputs": [],
      "stateMutability": "nonpayable",
      "type": "function"
    },
    {
      "inputs": [
        {
          "internalType": "bytes4",
          "name": "interfaceId",
          "type": "bytes4"
        }
      ],
      "name": "supportsInterface",
      "outputs": [
        {
          "internalType": "bool",
          "name": "",
          "type": "bool"
        }
      ],
      "stateMutability": "view",
      "type": "function"
    },
    {
      "inputs": [],
      "name": "symbol",
      "outputs": [
        {
          "internalType": "string",
          "name": "",
          "type": "string"
        }
      ],
      "stateMutability": "view",
      "type": "function"
    },
    {
      "inputs": [],
      "name": "tokenId",
      "outputs": [
        {
          "internalType": "uint256",
          "name": "",
          "type": "uint256"
        }
      ],
      "stateMutability": "view",
      "type": "function"
    },
    {
      "inputs": [
        {
          "internalType": "uint256",
          "name": "_tokenId",
          "type": "uint256"
        }
      ],
      "name": "tokenURI",
      "outputs": [
        {
          "internalType": "string",
          "name": "",
          "type": "string"
        }
      ],
      "stateMutability": "view",
      "type": "function"
    },
    {
      "inputs": [],
      "name": "tokensMinted",
      "outputs": [
        {
          "internalType": "uint256[]",
          "name": "",
          "type": "uint256[]"
        }
      ],
      "stateMutability": "view",
      "type": "function"
    },
    {
      "inputs": [
        {
          "internalType": "address",
          "name": "from",
          "type": "address"
        },
        {
          "internalType": "address",
          "name": "to",
          "type": "address"
        },
        {
          "internalType": "uint256",
          "name": "tokenId",
          "type": "uint256"
        }
      ],
      "name": "transferFrom",
      "outputs": [],
      "stateMutability": "nonpayable",
      "type": "function"
    },
    {
      "inputs": [
        {
          "internalType": "address",
          "name": "newOwner",
          "type": "address"
        }
      ],
      "name": "transferOwnership",
      "outputs": [],
      "stateMutability": "nonpayable",
      "type": "function"
    },
    {
      "inputs": [],
      "name": "withdraw",
      "outputs": [],
      "stateMutability": "nonpayable",
      "type": "function"
    }
  ],
  "bytecode": "0x60806040526000600a60006101000a81548160ff0219169083151502179055506000600a60016101000a81548160ff0219169083151502179055506000600a60026101000a81548160ff0219169083151502179055503480156200006257600080fd5b506040518060400160405280600581526020017f50617274730000000000000000000000000000000000000000000000000000008152506040518060400160405280600381526020017f50525400000000000000000000000000000000000000000000000000000000008152508160009080519060200190620000e7929190620001ff565b50806001908051906020019062000100929190620001ff565b50505062000123620001176200013160201b60201c565b6200013960201b60201c565b600160098190555062000314565b600033905090565b6000600660009054906101000a900473ffffffffffffffffffffffffffffffffffffffff16905081600660006101000a81548173ffffffffffffffffffffffffffffffffffffffff021916908373ffffffffffffffffffffffffffffffffffffffff1602179055508173ffffffffffffffffffffffffffffffffffffffff168173ffffffffffffffffffffffffffffffffffffffff167f8be0079c531659141344cd1fd0a4f28419497f9722a3daafe3b4186f6b6457e060405160405180910390a35050565b8280546200020d90620002af565b90600052602060002090601f0160209004810192826200023157600085556200027d565b82601f106200024c57805160ff19168380011785556200027d565b828001600101855582156200027d579182015b828111156200027c5782518255916020019190600101906200025f565b5b5090506200028c919062000290565b5090565b5b80821115620002ab57600081600090555060010162000291565b5090565b60006002820490506001821680620002c857607f821691505b60208210811415620002df57620002de620002e5565b5b50919050565b7f4e487b7100000000000000000000000000000000000000000000000000000000600052602260045260246000fd5b6145e580620003246000396000f3fe60806040526004361061020e5760003560e01c80636de9f32b1161011857806397495d71116100a0578063c87b56dd1161006f578063c87b56dd14610744578063e985e9c514610781578063ef32b8e7146107be578063f2fde38b146107e9578063f9ca652e146108125761020e565b806397495d71146106ad578063a0712d68146106d6578063a22cb465146106f2578063b88d4fde1461071b5761020e565b80637a4e60cd116100e75780637a4e60cd146105c6578063833b94991461060357806386098eb71461062e5780638da5cb5b1461065757806395d89b41146106825761020e565b80636de9f32b1461050a57806370a0823114610535578063715018a61461057257806376dd110f146105895761020e565b806324ec277c1161019b5780633ccfd60b1161016a5780633ccfd60b1461045f57806340d0b4a91461047657806342842e0e1461048d5780636352211e146104b65780636b22f36c146104f35761020e565b806324ec277c146103d85780632bb7eff0146103f45780633058856a1461040b57806332cb6b0c146104345761020e565b806306fdde03116101e257806306fdde03146102f3578063081812fc1461031e578063095ea7b31461035b57806317d70f7c1461038457806323b872dd146103af5761020e565b80626c1e5f1461021357806301ffc9a71461025057806302e0a0771461028d57806305d60ffb146102b6575b600080fd5b34801561021f57600080fd5b5061023a60048036038101906102359190613180565b61084f565b6040516102479190613aa0565b60405180910390f35b34801561025c57600080fd5b50610277600480360381019061027291906130ed565b610873565b60405161028491906137a3565b60405180910390f35b34801561029957600080fd5b506102b460048036038101906102af919061313f565b610955565b005b3480156102c257600080fd5b506102dd60048036038101906102d89190612e33565b6109eb565b6040516102ea9190613abb565b60405180910390f35b3480156102ff57600080fd5b50610308610a0b565b60405161031591906137be565b60405180910390f35b34801561032a57600080fd5b5061034560048036038101906103409190613180565b610a9d565b60405161035291906136f8565b60405180910390f35b34801561036757600080fd5b50610382600480360381019061037d9190613059565b610b22565b005b34801561039057600080fd5b50610399610c3a565b6040516103a69190613aa0565b60405180910390f35b3480156103bb57600080fd5b506103d660048036038101906103d19190612e98565b610c40565b005b6103f260048036038101906103ed91906131a9565b610ca0565b005b34801561040057600080fd5b50610409610f01565b005b34801561041757600080fd5b50610432600480360381019061042d9190612ff2565b610f9a565b005b34801561044057600080fd5b5061044961121c565b6040516104569190613aa0565b60405180910390f35b34801561046b57600080fd5b50610474611221565b005b34801561048257600080fd5b5061048b6112e6565b005b34801561049957600080fd5b506104b460048036038101906104af9190612e98565b61137f565b005b3480156104c257600080fd5b506104dd60048036038101906104d89190613180565b61139f565b6040516104ea91906136f8565b60405180910390f35b3480156104ff57600080fd5b50610508611451565b005b34801561051657600080fd5b5061051f6114ea565b60405161052c9190613781565b60405180910390f35b34801561054157600080fd5b5061055c60048036038101906105579190612e33565b611542565b6040516105699190613aa0565b60405180910390f35b34801561057e57600080fd5b506105876115fa565b005b34801561059557600080fd5b506105b060048036038101906105ab9190612e33565b611682565b6040516105bd9190613aa0565b60405180910390f35b3480156105d257600080fd5b506105ed60048036038101906105e89190612f9e565b61169a565b6040516105fa9190613aa0565b60405180910390f35b34801561060f57600080fd5b506106186116d5565b6040516106259190613aa0565b60405180910390f35b34801561063a57600080fd5b506106556004803603810190610650919061313f565b6116df565b005b34801561066357600080fd5b5061066c611775565b60405161067991906136f8565b60405180910390f35b34801561068e57600080fd5b5061069761179f565b6040516106a491906137be565b60405180910390f35b3480156106b957600080fd5b506106d460048036038101906106cf9190613095565b611831565b005b6106f060048036038101906106eb9190613180565b611979565b005b3480156106fe57600080fd5b5061071960048036038101906107149190612f62565b6119fe565b005b34801561072757600080fd5b50610742600480360381019061073d9190612ee7565b611a14565b005b34801561075057600080fd5b5061076b60048036038101906107669190613180565b611a76565b60405161077891906137be565b60405180910390f35b34801561078d57600080fd5b506107a860048036038101906107a39190612e5c565b611b37565b6040516107b591906137a3565b60405180910390f35b3480156107ca57600080fd5b506107d3611bcb565b6040516107e0919061375f565b60405180910390f35b3480156107f557600080fd5b50610810600480360381019061080b9190612e33565b611c59565b005b34801561081e57600080fd5b5061083960048036038101906108349190613180565b611d51565b60405161084691906136f8565b60405180910390f35b600c818154811061085f57600080fd5b906000526020600020016000915090505481565b60007f80ac58cd000000000000000000000000000000000000000000000000000000007bffffffffffffffffffffffffffffffffffffffffffffffffffffffff1916827bffffffffffffffffffffffffffffffffffffffffffffffffffffffff1916148061093e57507f5b5e139f000000000000000000000000000000000000000000000000000000007bffffffffffffffffffffffffffffffffffffffffffffffffffffffff1916827bffffffffffffffffffffffffffffffffffffffffffffffffffffffff1916145b8061094e575061094d82611d90565b5b9050919050565b61095d611dfa565b73ffffffffffffffffffffffffffffffffffffffff1661097b611775565b73ffffffffffffffffffffffffffffffffffffffff16146109d1576040517f08c379a00000000000000000000000000000000000000000000000000000000081526004016109c8906139c0565b60405180910390fd5b80600890805190602001906109e7929190612bf8565b5050565b600b6020528060005260406000206000915054906101000a900460ff1681565b606060008054610a1a90613e1e565b80601f0160208091040260200160405190810160405280929190818152602001828054610a4690613e1e565b8015610a935780601f10610a6857610100808354040283529160200191610a93565b820191906000526020600020905b815481529060010190602001808311610a7657829003601f168201915b5050505050905090565b6000610aa882611e02565b610ae7576040517f08c379a0000000000000000000000000000000000000000000000000000000008152600401610ade906139a0565b60405180910390fd5b6004600083815260200190815260200160002060009054906101000a900473ffffffffffffffffffffffffffffffffffffffff169050919050565b6000610b2d8261139f565b90508073ffffffffffffffffffffffffffffffffffffffff168373ffffffffffffffffffffffffffffffffffffffff161415610b9e576040517f08c379a0000000000000000000000000000000000000000000000000000000008152600401610b9590613a40565b60405180910390fd5b8073ffffffffffffffffffffffffffffffffffffffff16610bbd611dfa565b73ffffffffffffffffffffffffffffffffffffffff161480610bec5750610beb81610be6611dfa565b611b37565b5b610c2b576040517f08c379a0000000000000000000000000000000000000000000000000000000008152600401610c2290613920565b60405180910390fd5b610c358383611e6e565b505050565b60095481565b610c51610c4b611dfa565b82611f27565b610c90576040517f08c379a0000000000000000000000000000000000000000000000000000000008152600401610c8790613a80565b60405180910390fd5b610c9b838383612005565b505050565b600a60019054906101000a900460ff16610cef576040517f08c379a0000000000000000000000000000000000000000000000000000000008152600401610ce6906137e0565b60405180910390fd5b600b60003373ffffffffffffffffffffffffffffffffffffffff1673ffffffffffffffffffffffffffffffffffffffff16815260200190815260200160002060009054906101000a900460ff1660ff168160ff161115610d84576040517f08c379a0000000000000000000000000000000000000000000000000000000008152600401610d7b90613a60565b60405180910390fd5b606460018260ff16600954610d999190613c12565b610da39190613cf3565b1115610de4576040517f08c379a0000000000000000000000000000000000000000000000000000000008152600401610ddb90613880565b60405180910390fd5b348160ff16655af3107a4000610dfa9190613c99565b1115610e3b576040517f08c379a0000000000000000000000000000000000000000000000000000000008152600401610e3290613a20565b60405180910390fd5b80600b60003373ffffffffffffffffffffffffffffffffffffffff1673ffffffffffffffffffffffffffffffffffffffff16815260200190815260200160002060008282829054906101000a900460ff16610e969190613d27565b92506101000a81548160ff021916908360ff16021790555060005b8160ff16811015610ee657610ed33382600954610ece9190613c12565b61226c565b8080610ede90613e81565b915050610eb1565b508060ff16600954610ef89190613c12565b60098190555050565b610f09611dfa565b73ffffffffffffffffffffffffffffffffffffffff16610f27611775565b73ffffffffffffffffffffffffffffffffffffffff1614610f7d576040517f08c379a0000000000000000000000000000000000000000000000000000000008152600401610f74906139c0565b60405180910390fd5b6001600a60026101000a81548160ff021916908315150217905550565b610fa2611dfa565b73ffffffffffffffffffffffffffffffffffffffff16610fc0611775565b73ffffffffffffffffffffffffffffffffffffffff1614611016576040517f08c379a000000000000000000000000000000000000000000000000000000000815260040161100d906139c0565b60405180910390fd5b6001600d60008573ffffffffffffffffffffffffffffffffffffffff1673ffffffffffffffffffffffffffffffffffffffff1681526020019081526020016000208360405161106591906136bd565b90815260200160405180910390205411156110b5576040517f08c379a00000000000000000000000000000000000000000000000000000000081526004016110ac906138a0565b60405180910390fd5b6000600e60008573ffffffffffffffffffffffffffffffffffffffff1673ffffffffffffffffffffffffffffffffffffffff16815260200190815260200160002054141561116157600f839080600181540180825580915050600190039060005260206000200160009091909190916101000a81548173ffffffffffffffffffffffffffffffffffffffff021916908373ffffffffffffffffffffffffffffffffffffffff1602179055505b80600e60008573ffffffffffffffffffffffffffffffffffffffff1673ffffffffffffffffffffffffffffffffffffffff16815260200190815260200160002060008282546111b09190613c12565b9250508190555080600d60008573ffffffffffffffffffffffffffffffffffffffff1673ffffffffffffffffffffffffffffffffffffffff1681526020019081526020016000208360405161120591906136bd565b908152602001604051809103902081905550505050565b606481565b611229611dfa565b73ffffffffffffffffffffffffffffffffffffffff16611247611775565b73ffffffffffffffffffffffffffffffffffffffff161461129d576040517f08c379a0000000000000000000000000000000000000000000000000000000008152600401611294906139c0565b60405180910390fd5b3373ffffffffffffffffffffffffffffffffffffffff166108fc479081150290604051600060405180830381858888f193505050501580156112e3573d6000803e3d6000fd5b50565b6112ee611dfa565b73ffffffffffffffffffffffffffffffffffffffff1661130c611775565b73ffffffffffffffffffffffffffffffffffffffff1614611362576040517f08c379a0000000000000000000000000000000000000000000000000000000008152600401611359906139c0565b60405180910390fd5b6001600a60006101000a81548160ff021916908315150217905550565b61139a83838360405180602001604052806000815250611a14565b505050565b6000806002600084815260200190815260200160002060009054906101000a900473ffffffffffffffffffffffffffffffffffffffff169050600073ffffffffffffffffffffffffffffffffffffffff168173ffffffffffffffffffffffffffffffffffffffff161415611448576040517f08c379a000000000000000000000000000000000000000000000000000000000815260040161143f90613960565b60405180910390fd5b80915050919050565b611459611dfa565b73ffffffffffffffffffffffffffffffffffffffff16611477611775565b73ffffffffffffffffffffffffffffffffffffffff16146114cd576040517f08c379a00000000000000000000000000000000000000000000000000000000081526004016114c4906139c0565b60405180910390fd5b6001600a60016101000a81548160ff021916908315150217905550565b6060600c80548060200260200160405190810160405280929190818152602001828054801561153857602002820191906000526020600020905b815481526020019060010190808311611524575b5050505050905090565b60008073ffffffffffffffffffffffffffffffffffffffff168273ffffffffffffffffffffffffffffffffffffffff1614156115b3576040517f08c379a00000000000000000000000000000000000000000000000000000000081526004016115aa90613940565b60405180910390fd5b600360008373ffffffffffffffffffffffffffffffffffffffff1673ffffffffffffffffffffffffffffffffffffffff168152602001908152602001600020549050919050565b611602611dfa565b73ffffffffffffffffffffffffffffffffffffffff16611620611775565b73ffffffffffffffffffffffffffffffffffffffff1614611676576040517f08c379a000000000000000000000000000000000000000000000000000000000815260040161166d906139c0565b60405180910390fd5b611680600061228a565b565b600e6020528060005260406000206000915090505481565b600d60205281600052604060002081805160208101820180518482526020830160208501208183528095505050505050600091509150505481565b655af3107a400081565b6116e7611dfa565b73ffffffffffffffffffffffffffffffffffffffff16611705611775565b73ffffffffffffffffffffffffffffffffffffffff161461175b576040517f08c379a0000000000000000000000000000000000000000000000000000000008152600401611752906139c0565b60405180910390fd5b8060079080519060200190611771929190612bf8565b5050565b6000600660009054906101000a900473ffffffffffffffffffffffffffffffffffffffff16905090565b6060600180546117ae90613e1e565b80601f01602080910402602001604051908101604052809291908181526020018280546117da90613e1e565b80156118275780601f106117fc57610100808354040283529160200191611827565b820191906000526020600020905b81548152906001019060200180831161180a57829003601f168201915b5050505050905090565b611839611dfa565b73ffffffffffffffffffffffffffffffffffffffff16611857611775565b73ffffffffffffffffffffffffffffffffffffffff16146118ad576040517f08c379a00000000000000000000000000000000000000000000000000000000081526004016118a4906139c0565b60405180910390fd5b60005b838390508110156119735781600b60008686858181106118f9577f4e487b7100000000000000000000000000000000000000000000000000000000600052603260045260246000fd5b905060200201602081019061190e9190612e33565b73ffffffffffffffffffffffffffffffffffffffff1673ffffffffffffffffffffffffffffffffffffffff16815260200190815260200160002060006101000a81548160ff021916908360ff160217905550808061196b90613e81565b9150506118b0565b50505050565b600a60029054906101000a900460ff166119c8576040517f08c379a00000000000000000000000000000000000000000000000000000000081526004016119bf906139e0565b60405180910390fd5b6119d2338261226c565b600c81908060018154018082558091505060019003906000526020600020016000909190919091505550565b611a10611a09611dfa565b8383612350565b5050565b611a25611a1f611dfa565b83611f27565b611a64576040517f08c379a0000000000000000000000000000000000000000000000000000000008152600401611a5b90613a80565b60405180910390fd5b611a70848484846124bd565b50505050565b606060011515600a60009054906101000a900460ff1615151415611aa457611a9d82612519565b9050611b32565b60088054611ab190613e1e565b80601f0160208091040260200160405190810160405280929190818152602001828054611add90613e1e565b8015611b2a5780601f10611aff57610100808354040283529160200191611b2a565b820191906000526020600020905b815481529060010190602001808311611b0d57829003601f168201915b505050505090505b919050565b6000600560008473ffffffffffffffffffffffffffffffffffffffff1673ffffffffffffffffffffffffffffffffffffffff16815260200190815260200160002060008373ffffffffffffffffffffffffffffffffffffffff1673ffffffffffffffffffffffffffffffffffffffff16815260200190815260200160002060009054906101000a900460ff16905092915050565b6060600f805480602002602001604051908101604052809291908181526020018280548015611c4f57602002820191906000526020600020905b8160009054906101000a900473ffffffffffffffffffffffffffffffffffffffff1673ffffffffffffffffffffffffffffffffffffffff1681526020019060010190808311611c05575b5050505050905090565b611c61611dfa565b73ffffffffffffffffffffffffffffffffffffffff16611c7f611775565b73ffffffffffffffffffffffffffffffffffffffff1614611cd5576040517f08c379a0000000000000000000000000000000000000000000000000000000008152600401611ccc906139c0565b60405180910390fd5b600073ffffffffffffffffffffffffffffffffffffffff168173ffffffffffffffffffffffffffffffffffffffff161415611d45576040517f08c379a0000000000000000000000000000000000000000000000000000000008152600401611d3c90613820565b60405180910390fd5b611d4e8161228a565b50565b600f8181548110611d6157600080fd5b906000526020600020016000915054906101000a900473ffffffffffffffffffffffffffffffffffffffff1681565b60007f01ffc9a7000000000000000000000000000000000000000000000000000000007bffffffffffffffffffffffffffffffffffffffffffffffffffffffff1916827bffffffffffffffffffffffffffffffffffffffffffffffffffffffff1916149050919050565b600033905090565b60008073ffffffffffffffffffffffffffffffffffffffff166002600084815260200190815260200160002060009054906101000a900473ffffffffffffffffffffffffffffffffffffffff1673ffffffffffffffffffffffffffffffffffffffff1614159050919050565b816004600083815260200190815260200160002060006101000a81548173ffffffffffffffffffffffffffffffffffffffff021916908373ffffffffffffffffffffffffffffffffffffffff160217905550808273ffffffffffffffffffffffffffffffffffffffff16611ee18361139f565b73ffffffffffffffffffffffffffffffffffffffff167f8c5be1e5ebec7d5bd14f71427d1e84f3dd0314c0f7b2291e5b200ac8c7c3b92560405160405180910390a45050565b6000611f3282611e02565b611f71576040517f08c379a0000000000000000000000000000000000000000000000000000000008152600401611f6890613900565b60405180910390fd5b6000611f7c8361139f565b90508073ffffffffffffffffffffffffffffffffffffffff168473ffffffffffffffffffffffffffffffffffffffff161480611fbe5750611fbd8185611b37565b5b80611ffc57508373ffffffffffffffffffffffffffffffffffffffff16611fe484610a9d565b73ffffffffffffffffffffffffffffffffffffffff16145b91505092915050565b8273ffffffffffffffffffffffffffffffffffffffff166120258261139f565b73ffffffffffffffffffffffffffffffffffffffff161461207b576040517f08c379a000000000000000000000000000000000000000000000000000000000815260040161207290613840565b60405180910390fd5b600073ffffffffffffffffffffffffffffffffffffffff168273ffffffffffffffffffffffffffffffffffffffff1614156120eb576040517f08c379a00000000000000000000000000000000000000000000000000000000081526004016120e2906138c0565b60405180910390fd5b6120f68383836125c0565b612101600082611e6e565b6001600360008573ffffffffffffffffffffffffffffffffffffffff1673ffffffffffffffffffffffffffffffffffffffff16815260200190815260200160002060008282546121519190613cf3565b925050819055506001600360008473ffffffffffffffffffffffffffffffffffffffff1673ffffffffffffffffffffffffffffffffffffffff16815260200190815260200160002060008282546121a89190613c12565b92505081905550816002600083815260200190815260200160002060006101000a81548173ffffffffffffffffffffffffffffffffffffffff021916908373ffffffffffffffffffffffffffffffffffffffff160217905550808273ffffffffffffffffffffffffffffffffffffffff168473ffffffffffffffffffffffffffffffffffffffff167fddf252ad1be2c89b69c2b068fc378daa952ba7f163c4a11628f55a4df523b3ef60405160405180910390a46122678383836125c5565b505050565b6122868282604051806020016040528060008152506125ca565b5050565b6000600660009054906101000a900473ffffffffffffffffffffffffffffffffffffffff16905081600660006101000a81548173ffffffffffffffffffffffffffffffffffffffff021916908373ffffffffffffffffffffffffffffffffffffffff1602179055508173ffffffffffffffffffffffffffffffffffffffff168173ffffffffffffffffffffffffffffffffffffffff167f8be0079c531659141344cd1fd0a4f28419497f9722a3daafe3b4186f6b6457e060405160405180910390a35050565b8173ffffffffffffffffffffffffffffffffffffffff168373ffffffffffffffffffffffffffffffffffffffff1614156123bf576040517f08c379a00000000000000000000000000000000000000000000000000000000081526004016123b6906138e0565b60405180910390fd5b80600560008573ffffffffffffffffffffffffffffffffffffffff1673ffffffffffffffffffffffffffffffffffffffff16815260200190815260200160002060008473ffffffffffffffffffffffffffffffffffffffff1673ffffffffffffffffffffffffffffffffffffffff16815260200190815260200160002060006101000a81548160ff0219169083151502179055508173ffffffffffffffffffffffffffffffffffffffff168373ffffffffffffffffffffffffffffffffffffffff167f17307eab39ab6107e8899845ad3d59bd9653f200f220920489ca2b5937696c31836040516124b091906137a3565b60405180910390a3505050565b6124c8848484612005565b6124d484848484612625565b612513576040517f08c379a000000000000000000000000000000000000000000000000000000000815260040161250a90613800565b60405180910390fd5b50505050565b606061252482611e02565b612563576040517f08c379a000000000000000000000000000000000000000000000000000000000815260040161255a90613a00565b60405180910390fd5b600061256d6127bc565b9050600081511161258d57604051806020016040528060008152506125b8565b806125978461284e565b6040516020016125a89291906136d4565b6040516020818303038152906040525b915050919050565b505050565b505050565b6125d483836129fb565b6125e16000848484612625565b612620576040517f08c379a000000000000000000000000000000000000000000000000000000000815260040161261790613800565b60405180910390fd5b505050565b60006126468473ffffffffffffffffffffffffffffffffffffffff16612bd5565b156127af578373ffffffffffffffffffffffffffffffffffffffff1663150b7a0261266f611dfa565b8786866040518563ffffffff1660e01b81526004016126919493929190613713565b602060405180830381600087803b1580156126ab57600080fd5b505af19250505080156126dc57506040513d601f19601f820116820180604052508101906126d99190613116565b60015b61275f573d806000811461270c576040519150601f19603f3d011682016040523d82523d6000602084013e612711565b606091505b50600081511415612757576040517f08c379a000000000000000000000000000000000000000000000000000000000815260040161274e90613800565b60405180910390fd5b805181602001fd5b63150b7a0260e01b7bffffffffffffffffffffffffffffffffffffffffffffffffffffffff1916817bffffffffffffffffffffffffffffffffffffffffffffffffffffffff1916149150506127b4565b600190505b949350505050565b6060600780546127cb90613e1e565b80601f01602080910402602001604051908101604052809291908181526020018280546127f790613e1e565b80156128445780601f1061281957610100808354040283529160200191612844565b820191906000526020600020905b81548152906001019060200180831161282757829003601f168201915b5050505050905090565b60606000821415612896576040518060400160405280600181526020017f300000000000000000000000000000000000000000000000000000000000000081525090506129f6565b600082905060005b600082146128c85780806128b190613e81565b915050600a826128c19190613c68565b915061289e565b60008167ffffffffffffffff81111561290a577f4e487b7100000000000000000000000000000000000000000000000000000000600052604160045260246000fd5b6040519080825280601f01601f19166020018201604052801561293c5781602001600182028036833780820191505090505b5090505b600085146129ef576001826129559190613cf3565b9150600a856129649190613eca565b60306129709190613c12565b60f81b8183815181106129ac577f4e487b7100000000000000000000000000000000000000000000000000000000600052603260045260246000fd5b60200101907effffffffffffffffffffffffffffffffffffffffffffffffffffffffffffff1916908160001a905350600a856129e89190613c68565b9450612940565b8093505050505b919050565b600073ffffffffffffffffffffffffffffffffffffffff168273ffffffffffffffffffffffffffffffffffffffff161415612a6b576040517f08c379a0000000000000000000000000000000000000000000000000000000008152600401612a6290613980565b60405180910390fd5b612a7481611e02565b15612ab4576040517f08c379a0000000000000000000000000000000000000000000000000000000008152600401612aab90613860565b60405180910390fd5b612ac0600083836125c0565b6001600360008473ffffffffffffffffffffffffffffffffffffffff1673ffffffffffffffffffffffffffffffffffffffff1681526020019081526020016000206000828254612b109190613c12565b92505081905550816002600083815260200190815260200160002060006101000a81548173ffffffffffffffffffffffffffffffffffffffff021916908373ffffffffffffffffffffffffffffffffffffffff160217905550808273ffffffffffffffffffffffffffffffffffffffff16600073ffffffffffffffffffffffffffffffffffffffff167fddf252ad1be2c89b69c2b068fc378daa952ba7f163c4a11628f55a4df523b3ef60405160405180910390a4612bd1600083836125c5565b5050565b6000808273ffffffffffffffffffffffffffffffffffffffff163b119050919050565b828054612c0490613e1e565b90600052602060002090601f016020900481019282612c265760008555612c6d565b82601f10612c3f57805160ff1916838001178555612c6d565b82800160010185558215612c6d579182015b82811115612c6c578251825591602001919060010190612c51565b5b509050612c7a9190612c7e565b5090565b5b80821115612c97576000816000905550600101612c7f565b5090565b6000612cae612ca984613afb565b613ad6565b905082815260208101848484011115612cc657600080fd5b612cd1848285613ddc565b509392505050565b6000612cec612ce784613b2c565b613ad6565b905082815260208101848484011115612d0457600080fd5b612d0f848285613ddc565b509392505050565b600081359050612d268161453c565b92915050565b60008083601f840112612d3e57600080fd5b8235905067ffffffffffffffff811115612d5757600080fd5b602083019150836020820283011115612d6f57600080fd5b9250929050565b600081359050612d8581614553565b92915050565b600081359050612d9a8161456a565b92915050565b600081519050612daf8161456a565b92915050565b600082601f830112612dc657600080fd5b8135612dd6848260208601612c9b565b91505092915050565b600082601f830112612df057600080fd5b8135612e00848260208601612cd9565b91505092915050565b600081359050612e1881614581565b92915050565b600081359050612e2d81614598565b92915050565b600060208284031215612e4557600080fd5b6000612e5384828501612d17565b91505092915050565b60008060408385031215612e6f57600080fd5b6000612e7d85828601612d17565b9250506020612e8e85828601612d17565b9150509250929050565b600080600060608486031215612ead57600080fd5b6000612ebb86828701612d17565b9350506020612ecc86828701612d17565b9250506040612edd86828701612e09565b9150509250925092565b60008060008060808587031215612efd57600080fd5b6000612f0b87828801612d17565b9450506020612f1c87828801612d17565b9350506040612f2d87828801612e09565b925050606085013567ffffffffffffffff811115612f4a57600080fd5b612f5687828801612db5565b91505092959194509250565b60008060408385031215612f7557600080fd5b6000612f8385828601612d17565b9250506020612f9485828601612d76565b9150509250929050565b60008060408385031215612fb157600080fd5b6000612fbf85828601612d17565b925050602083013567ffffffffffffffff811115612fdc57600080fd5b612fe885828601612ddf565b9150509250929050565b60008060006060848603121561300757600080fd5b600061301586828701612d17565b935050602084013567ffffffffffffffff81111561303257600080fd5b61303e86828701612ddf565b925050604061304f86828701612e09565b9150509250925092565b6000806040838503121561306c57600080fd5b600061307a85828601612d17565b925050602061308b85828601612e09565b9150509250929050565b6000806000604084860312156130aa57600080fd5b600084013567ffffffffffffffff8111156130c457600080fd5b6130d086828701612d2c565b935093505060206130e386828701612e1e565b9150509250925092565b6000602082840312156130ff57600080fd5b600061310d84828501612d8b565b91505092915050565b60006020828403121561312857600080fd5b600061313684828501612da0565b91505092915050565b60006020828403121561315157600080fd5b600082013567ffffffffffffffff81111561316b57600080fd5b61317784828501612ddf565b91505092915050565b60006020828403121561319257600080fd5b60006131a084828501612e09565b91505092915050565b6000602082840312156131bb57600080fd5b60006131c984828501612e1e565b91505092915050565b60006131de8383613202565b60208301905092915050565b60006131f68383613690565b60208301905092915050565b61320b81613d5b565b82525050565b61321a81613d5b565b82525050565b600061322b82613b7d565b6132358185613bc3565b935061324083613b5d565b8060005b8381101561327157815161325888826131d2565b975061326383613ba9565b925050600181019050613244565b5085935050505092915050565b600061328982613b88565b6132938185613bd4565b935061329e83613b6d565b8060005b838110156132cf5781516132b688826131ea565b97506132c183613bb6565b9250506001810190506132a2565b5085935050505092915050565b6132e581613d6d565b82525050565b60006132f682613b93565b6133008185613be5565b9350613310818560208601613deb565b61331981613fb7565b840191505092915050565b600061332f82613b9e565b6133398185613bf6565b9350613349818560208601613deb565b61335281613fb7565b840191505092915050565b600061336882613b9e565b6133728185613c07565b9350613382818560208601613deb565b80840191505092915050565b600061339b601783613bf6565b91506133a682613fc8565b602082019050919050565b60006133be603283613bf6565b91506133c982613ff1565b604082019050919050565b60006133e1602683613bf6565b91506133ec82614040565b604082019050919050565b6000613404602583613bf6565b915061340f8261408f565b604082019050919050565b6000613427601c83613bf6565b9150613432826140de565b602082019050919050565b600061344a601f83613bf6565b915061345582614107565b602082019050919050565b600061346d601383613bf6565b915061347882614130565b602082019050919050565b6000613490602483613bf6565b915061349b82614159565b604082019050919050565b60006134b3601983613bf6565b91506134be826141a8565b602082019050919050565b60006134d6602c83613bf6565b91506134e1826141d1565b604082019050919050565b60006134f9603883613bf6565b915061350482614220565b604082019050919050565b600061351c602a83613bf6565b91506135278261426f565b604082019050919050565b600061353f602983613bf6565b915061354a826142be565b604082019050919050565b6000613562602083613bf6565b915061356d8261430d565b602082019050919050565b6000613585602c83613bf6565b915061359082614336565b604082019050919050565b60006135a8602083613bf6565b91506135b382614385565b602082019050919050565b60006135cb601583613bf6565b91506135d6826143ae565b602082019050919050565b60006135ee602f83613bf6565b91506135f9826143d7565b604082019050919050565b6000613611601a83613bf6565b915061361c82614426565b602082019050919050565b6000613634602183613bf6565b915061363f8261444f565b604082019050919050565b6000613657602283613bf6565b91506136628261449e565b604082019050919050565b600061367a603183613bf6565b9150613685826144ed565b604082019050919050565b61369981613dc5565b82525050565b6136a881613dc5565b82525050565b6136b781613dcf565b82525050565b60006136c9828461335d565b915081905092915050565b60006136e0828561335d565b91506136ec828461335d565b91508190509392505050565b600060208201905061370d6000830184613211565b92915050565b60006080820190506137286000830187613211565b6137356020830186613211565b613742604083018561369f565b818103606083015261375481846132eb565b905095945050505050565b600060208201905081810360008301526137798184613220565b905092915050565b6000602082019050818103600083015261379b818461327e565b905092915050565b60006020820190506137b860008301846132dc565b92915050565b600060208201905081810360008301526137d88184613324565b905092915050565b600060208201905081810360008301526137f98161338e565b9050919050565b60006020820190508181036000830152613819816133b1565b9050919050565b60006020820190508181036000830152613839816133d4565b9050919050565b60006020820190508181036000830152613859816133f7565b9050919050565b600060208201905081810360008301526138798161341a565b9050919050565b600060208201905081810360008301526138998161343d565b9050919050565b600060208201905081810360008301526138b981613460565b9050919050565b600060208201905081810360008301526138d981613483565b9050919050565b600060208201905081810360008301526138f9816134a6565b9050919050565b60006020820190508181036000830152613919816134c9565b9050919050565b60006020820190508181036000830152613939816134ec565b9050919050565b600060208201905081810360008301526139598161350f565b9050919050565b6000602082019050818103600083015261397981613532565b9050919050565b6000602082019050818103600083015261399981613555565b9050919050565b600060208201905081810360008301526139b981613578565b9050919050565b600060208201905081810360008301526139d98161359b565b9050919050565b600060208201905081810360008301526139f9816135be565b9050919050565b60006020820190508181036000830152613a19816135e1565b9050919050565b60006020820190508181036000830152613a3981613604565b9050919050565b60006020820190508181036000830152613a5981613627565b9050919050565b60006020820190508181036000830152613a798161364a565b9050919050565b60006020820190508181036000830152613a998161366d565b9050919050565b6000602082019050613ab5600083018461369f565b92915050565b6000602082019050613ad060008301846136ae565b92915050565b6000613ae0613af1565b9050613aec8282613e50565b919050565b6000604051905090565b600067ffffffffffffffff821115613b1657613b15613f88565b5b613b1f82613fb7565b9050602081019050919050565b600067ffffffffffffffff821115613b4757613b46613f88565b5b613b5082613fb7565b9050602081019050919050565b6000819050602082019050919050565b6000819050602082019050919050565b600081519050919050565b600081519050919050565b600081519050919050565b600081519050919050565b6000602082019050919050565b6000602082019050919050565b600082825260208201905092915050565b600082825260208201905092915050565b600082825260208201905092915050565b600082825260208201905092915050565b600081905092915050565b6000613c1d82613dc5565b9150613c2883613dc5565b9250827fffffffffffffffffffffffffffffffffffffffffffffffffffffffffffffffff03821115613c5d57613c5c613efb565b5b828201905092915050565b6000613c7382613dc5565b9150613c7e83613dc5565b925082613c8e57613c8d613f2a565b5b828204905092915050565b6000613ca482613dc5565b9150613caf83613dc5565b9250817fffffffffffffffffffffffffffffffffffffffffffffffffffffffffffffffff0483118215151615613ce857613ce7613efb565b5b828202905092915050565b6000613cfe82613dc5565b9150613d0983613dc5565b925082821015613d1c57613d1b613efb565b5b828203905092915050565b6000613d3282613dcf565b9150613d3d83613dcf565b925082821015613d5057613d4f613efb565b5b828203905092915050565b6000613d6682613da5565b9050919050565b60008115159050919050565b60007fffffffff0000000000000000000000000000000000000000000000000000000082169050919050565b600073ffffffffffffffffffffffffffffffffffffffff82169050919050565b6000819050919050565b600060ff82169050919050565b82818337600083830152505050565b60005b83811015613e09578082015181840152602081019050613dee565b83811115613e18576000848401525b50505050565b60006002820490506001821680613e3657607f821691505b60208210811415613e4a57613e49613f59565b5b50919050565b613e5982613fb7565b810181811067ffffffffffffffff82111715613e7857613e77613f88565b5b80604052505050565b6000613e8c82613dc5565b91507fffffffffffffffffffffffffffffffffffffffffffffffffffffffffffffffff821415613ebf57613ebe613efb565b5b600182019050919050565b6000613ed582613dc5565b9150613ee083613dc5565b925082613ef057613eef613f2a565b5b828206905092915050565b7f4e487b7100000000000000000000000000000000000000000000000000000000600052601160045260246000fd5b7f4e487b7100000000000000000000000000000000000000000000000000000000600052601260045260246000fd5b7f4e487b7100000000000000000000000000000000000000000000000000000000600052602260045260246000fd5b7f4e487b7100000000000000000000000000000000000000000000000000000000600052604160045260246000fd5b6000601f19601f8301169050919050565b7f57686974656c697374206973206e6f7420616374697665000000000000000000600082015250565b7f4552433732313a207472616e7366657220746f206e6f6e20455243373231526560008201527f63656976657220696d706c656d656e7465720000000000000000000000000000602082015250565b7f4f776e61626c653a206e6577206f776e657220697320746865207a65726f206160008201527f6464726573730000000000000000000000000000000000000000000000000000602082015250565b7f4552433732313a207472616e736665722066726f6d20696e636f72726563742060008201527f6f776e6572000000000000000000000000000000000000000000000000000000602082015250565b7f4552433732313a20746f6b656e20616c7265616479206d696e74656400000000600082015250565b7f50757263686173652077696c6c20657863656564206d617820737570706c7900600082015250565b7f50757a7a6c6520616c726561647920646f6e6500000000000000000000000000600082015250565b7f4552433732313a207472616e7366657220746f20746865207a65726f2061646460008201527f7265737300000000000000000000000000000000000000000000000000000000602082015250565b7f4552433732313a20617070726f766520746f2063616c6c657200000000000000600082015250565b7f4552433732313a206f70657261746f7220717565727920666f72206e6f6e657860008201527f697374656e7420746f6b656e0000000000000000000000000000000000000000602082015250565b7f4552433732313a20617070726f76652063616c6c6572206973206e6f74206f7760008201527f6e6572206e6f7220617070726f76656420666f7220616c6c0000000000000000602082015250565b7f4552433732313a2062616c616e636520717565727920666f7220746865207a6560008201527f726f206164647265737300000000000000000000000000000000000000000000602082015250565b7f4552433732313a206f776e657220717565727920666f72206e6f6e657869737460008201527f656e7420746f6b656e0000000000000000000000000000000000000000000000602082015250565b7f4552433732313a206d696e7420746f20746865207a65726f2061646472657373600082015250565b7f4552433732313a20617070726f76656420717565727920666f72206e6f6e657860008201527f697374656e7420746f6b656e0000000000000000000000000000000000000000602082015250565b7f4f776e61626c653a2063616c6c6572206973206e6f7420746865206f776e6572600082015250565b7f4d696e74696e67206973206e6f74206163746976650000000000000000000000600082015250565b7f4552433732314d657461646174613a2055524920717565727920666f72206e6f60008201527f6e6578697374656e7420746f6b656e0000000000000000000000000000000000602082015250565b7f45746865722076616c7565206973206e6f7420636f7272656374000000000000600082015250565b7f4552433732313a20617070726f76616c20746f2063757272656e74206f776e6560008201527f7200000000000000000000000000000000000000000000000000000000000000602082015250565b7f4578636565646564206d617820617661696c61626c6520746f2070757263686160008201527f7365000000000000000000000000000000000000000000000000000000000000602082015250565b7f4552433732313a207472616e736665722063616c6c6572206973206e6f74206f60008201527f776e6572206e6f7220617070726f766564000000000000000000000000000000602082015250565b61454581613d5b565b811461455057600080fd5b50565b61455c81613d6d565b811461456757600080fd5b50565b61457381613d79565b811461457e57600080fd5b50565b61458a81613dc5565b811461459557600080fd5b50565b6145a181613dcf565b81146145ac57600080fd5b5056fea26469706673582212207f0e50d5398ca43fd46206bf8a1b4fb27863f30e0701b952605b66648b62a51c64736f6c63430008040033",
  "linkReferences": {},
  "deployedLinkReferences": {}
}